:100000000C9463000C949E0F0C94C50F0C948B0001
:100010000C948B000C948B000C948B000C948B0034
:100020000C948B000C948B000C948B000C948B0024
:100030000C948B000C948B000C948B000C948B0014
:100040000C94950E0C948B000C94E2100C941411EB
:100050000C948B000C948B000C948B000C948B00F4
:100060000C948B000C948B0000000008000201002F
:100070000003040700000000000000000102040863
:100080001020408001020408102001020408102002
:10009000040404040404040402020202020203032E
:1000A00003030303000000002300260029000000D2
:1000B0000000250028002B0000000000240027007D
:1000C0002A007E0F3A1111241FBECFEFD8E0DEBF09
:1000D000CDBF13E0A0E0B1E0E4E5F7E202C0059097
:1000E0000D92A239B107D9F727E0A2E9B3E001C028
:1000F0001D92A531B207E1F710E0C3E6D0E004C0DD
:100100002197FE010E949313C136D107C9F70E94BF
:100110006F0F0C943C130C940000E4E10E94420128
:100120000895E2E10E9442010895EAE00E9442013E
:100130000895E1E00E9442010895E3E00E94420137
:100140000895E7E00E9442010895E5E00E9442011F
:100150000895E0E00E9442010895E2E00E94420119
:100160000895E4E00E9442010895ECE00E944201FB
:100170000895EBE10E9442010895EEE00E944201E1
:100180000895E8E00E9442010895E0E10E944201E2
:100190000895EAE10E9442010895E6E00E944201CA
:1001A0000895E8E10E9442010895E9E00E944201B9
:1001B0000895EBE00E9442010895EDE00E944201A3
:1001C0000895EFE00E9442010895E1E10E9442019A
:1001D0000895E3E10E9442010895E5E10E94420191
:1001E0000895E7E10E9442010895E9E10E94420179
:1001F0000895E6E10E944201089521968A929A921A
:10020000AA92BA92CA92DA92EA92FA920A931A934C
:100210002197E0916D01F0916E010080F181E02D58
:10022000C083D1830895C0916F01D0917001E8819E
:10023000F981C081D181219619910991F990E990B4
:10024000D990C990B990A9909990899021970895D3
:100250002F903F90E7E6F1E0CDB7DEB7EDBFFEBFF0
:100260003F922F9208952F903F90CDBFDEBF3F92D7
:100270002F920895E0E80E9442010895E0E40E9470
:10028000420108952F923F924F925F926F927F9218
:100290002FB62F92CF93DF937E2EF894E09100013A
:1002A000EF5FE0930001E13011F40E942801E0E0EB
:1002B000E0937D01E72DE07849F00E94CD05F091B3
:1002C0007E01F17071F00E944F040BC0E72DEC31FC
:1002D00040F4EE0FF0E0E75CFC4F0190F081E02D80
:1002E0000995F0917D01EF2FE17059F0F27011F056
:1002F0000E94FD008F938F2F0E9497038F910E9481
:10030000130120910001215020930001222311F4B8
:100310000E943301DF91CF912F902FBE7F906F907D
:100320005F904F903F902F900895CF92DF92EF9281
:10033000FF920F931F93DC01EC91DB012C918E2F28
:100340008170C82ED12CE12CF12C8E2F8F7090E073
:10035000A0E0B0E0B695A79597958795DC01A854E5
:10036000BC4F8C91C81AD108E108F108EE70422FF9
:10037000417050E060E070E0822F8F7090E0A0E06C
:10038000B0E0B695A79597958795DC01A854BC4F2A
:100390008C91481B510961097109822F8E70970158
:1003A000860101701127222733270E2B4170552714
:1003B00066277727482B81E090E00417150726076A
:1003C000370710F080E090E01F910F91FF90EF90C1
:1003D000DF90CF9008958F929F92AF92BF92EF924D
:1003E000FF920F931F93CF93DF937C014A015B0130
:1003F000B694A7949794879442305105610571058E
:10040000E0F0440F551F8701040F151FE401CC0FC6
:10041000DD1FCE0DDF1DB801CE010E949501892B95
:1004200061F0F801908181812881398131832083B5
:1004300098838983B501A401DBCFDF91CF911F9110
:100440000F91FF90EF90BF90AF909F908F90089585
:100450004F925F926F927F928F929F92AF92BF92D4
:10046000CF92DF92EF92FF920F931F93CF93DF9380
:1004700000D000D000D0CDB7DEB78C016A017B017F
:10048000DC018C91282F30E040E050E029833A8352
:100490004B835C8346015701880C991CAA1CBB1C2A
:1004A00029813A814B815C81281539054A055B0514
:1004B00008F442C0240135013FEF431A530A630A8E
:1004C000730A89819A81AB81BC8184159505A60543
:1004D000B70580F0B201660F771F600F711FC4016E
:1004E000880F991F800F911F0E949501892B11F091
:1004F000530142013401660C771C600E711ECC0C56
:10050000DD1CD801AC0DBD1DBE83AD83B301CD0193
:100510000E949501892B81F0ED81FE81908181817E
:10052000D3012D913C911197318320839C93119697
:100530008C9375016401AECF26960FB6F894DEBF9A
:100540000FBECDBFDF91CF911F910F91FF90EF9024
:10055000DF90CF90BF90AF909F908F907F906F90E3
:100560005F904F900895E6EFF5E040814F5F408344
:1005700050E060E070E0E82FEE0FFF0BE851FD4F18
:100580000190F081E02D238530E0F901E854FC4F23
:10059000908191509083FA01EE0FFF1FEA50FA4FBD
:1005A000220F331F9170292B2083818386EF95E0E2
:1005B0000C94EB01E6EFF5E040814F5F408350E0A3
:1005C00060E070E0E82FEE0FFF0BE052FD4F01906E
:1005D000F081E02D9381FA01EE0FFF1FEA50FA4FF0
:1005E0009083818386EF95E00C94EB01CF93DF93AA
:1005F000E6EFF5E080819FEF980F9083D281C38171
:1006000090E0880F991FDC01AA50BA4F8D919C9100
:100610009383828341E050E060E070E0CF010E946C
:1006200028028D2F9C2FDF91CF9108958091920306
:10063000811114C08091750190917601A09177018C
:10064000B09178018F3F2FEF9207A207B20741F0D8
:100650000397A105B10534F481E0089584E008957D
:1006600080E0089582E00895880F990BFC01E8511D
:10067000FD4F0190F081E02D0084F185E02D309751
:10068000E9F0228121111AC021E02283DC01A0526D
:10069000BD4F0D90BC91A02D13968C911397818323
:1006A000808190E0FC01E854FC4F208121502083A0
:1006B000880F991F2170822B13968C930895880FB1
:1006C000990BFC01E851FD4F0190F081E02D008471
:1006D000F185E02D309761F02281213049F41282BA
:1006E0002181FC01E052FD4F0190F081E02D238338
:1006F00008958091790190917A01A0917B01B09148
:100700007C01409175015091760160917701709163
:100710007801481759076A077B0741F0E091730198
:10072000F091740121E024830C94DA020895CF93B0
:10073000DF93882391F0C0916D01D0916E01E0911B
:100740007101F09172018481833049F081E08483EA
:10075000809175010E94DA0202C0C0E0D0E0E09111
:100760007301F0917401F0937201E0937101809133
:100770006F019091700190936E0180936D01809153
:10078000790130917A0120917B0190917C018093D5
:10079000750130937601209377019093780192E070
:1007A00094830E943403CE01DF91CF91089580910C
:1007B00075010E945F03E0917101F09172018281E5
:1007C000882319F085E08483089514820895CF93D7
:1007D000DF93282F220F330BF901E052FD4FC08128
:1007E000D1819A81F901E851FD4F0190F081E02D0E
:1007F0002485921770F4911105C095E09C8391E0D7
:1008000090937E010E94B3028A818F5F8A8380E089
:1008100001C084E0DF91CF910895E82FEE0FFF0B28
:10082000E052FD4F0190F081E02D118210820C9476
:10083000290F1F93CF93DF930E94F602182F892F61
:10084000492F092E000C550B660B770B409379014D
:1008500050937A0160937B0170937C01292F220FC2
:10086000330BF901E052FD4FC081D181D093740167
:10087000C0937301F901E851FD4F2081318130931C
:10088000700120936F019C81953019F40E940D0432
:100890001B8310927E01DF91CF911F910895E0910B
:1008A0007901F0917A01EE0FFF1FE052FD4F0190A8
:1008B000F081E02D9091F8058381891730F40E9432
:1008C00079030E94190483E001C080E080937D01D8
:1008D000089581E080937D010C941904EF92FF92BA
:1008E0000F931F93CF93DF93C1E001C0CC0F8A9584
:1008F000EAF72091EE023091EF028091E6029091AA
:10090000E7021092F60510926E0110926D0130937D
:10091000700120936F0110927201109271019093F7
:100920007401809373018FEF9FEFDC018093750159
:1009300090937601A0937701B09378018093790129
:1009400090937A01A0937B01B0937C0110927D017A
:1009500010927E0183E00E94E70305E313E0D0E0FC
:10096000F80181918F018C2319F08D2F0E94E703EC
:10097000DF5FD330A9F702E313E08FEBE82E82E0CC
:10098000F82ED1E0F80181918F018C2339F0F70125
:1009900080819181FC01D6870E940605F2E0EF0E6E
:1009A000F11C83E00533180769F7DF91CF911F91A0
:1009B0000F91FF90EF9008950E94CA0781110E9445
:1009C000EB07E0917101F091720180819181892B97
:1009D00021F0809175010E94B2090C9413090E94C4
:1009E000CA0781110E94EB07E0917101F091720139
:1009F00080819181892B21F0809175010E94B2093B
:100A00000C94FB0881E0809393030895AF92BF920A
:100A1000CF92DF92EF92FF920F931F93CF93DF93CA
:100A2000FC01A081B181AD90BC90E501AC89BD898C
:100A3000109739F0428553856485758530E020E054
:100A400017C0D50155969C938E93549757969C93B7
:100A50008E93569715821482138212825BC012966F
:100A60008D919C9113973A2F2B2F009779F0DC01F1
:100A70001A96CD90DD90ED90FC901D974C155D057C
:100A80006E057F0560F7CD01A32FB22F938382837C
:100A9000B583A483009719F0EC01FD83EC831097D4
:100AA00029F01396FC93EE93129705C0D501559645
:100AB000FC93EE935497E501AE89BF891A968D9108
:100AC0009D910D90BC91A02D088919892A893B8997
:100AD00080179107A207B30780F4041715072607AC
:100AE000370728F0481759076A077B0798F4D5019C
:100AF0005796FC93EE9356970DC0041715072607DB
:100B0000370740F4481759076A077B0718F4E501CF
:100B1000FF8BEE8BDF91CF911F910F91FF90EF90A4
:100B2000DF90CF90BF90AF900895CF93DF93DC011B
:100B3000ED91FC9111970190F081E02D84899589C8
:100B40001296CD91DC911397A817B90711F4D58BA4
:100B5000C48B86899789A817B90711F4D78BC68BE0
:100B6000209731F014968D919C9115979D838C83DD
:100B700014960D90BC91A02D109721F01396DC9344
:100B8000CE93129786899789892B21F48489958938
:100B9000978B868BDF91CF910895EF92FF920F9301
:100BA0001F93CF93DF93FC0180919303882309F473
:100BB000B5C084859585A685B7850196A11DB11D13
:100BC00084879587A687B787408151816281738129
:100BD00084179507A607B70709F0A0C04089518977
:100BE000628973894F5F5F4F6F4F7F4F848195811B
:100BF000A681B78184179507A607B70718F440E0C8
:100C000050E0BA01408B518B628B738B1486158632
:100C100016861786C689D789209709F47FC08A85EA
:100C20009B85AC85BD85481759076A077B0709F086
:100C300075C0CE01DC011296ED90FC901397E11483
:100C4000F10471F0D7011A960D911D912D913C91EF
:100C50001D97401751076207730711F4C701EACFC8
:100C60002C813D812115310529F0D9011396FC9283
:100C7000EE921297E114F10429F0D70115963C93F6
:100C80002E93149724893589C217D30711F4F58A56
:100C9000E48AE114F10419F0F78AE68A04C0248991
:100CA0003589378B268B8F01FC0113821282EA80F3
:100CB000FB80E881F9810280F381E02DCE01099566
:100CC0004E815F8168857985411551056105710502
:100CD00009F18A859B85AC85BD85840F951FA61F6C
:100CE000B71FF801448155816681778148175907FC
:100CF0006A077B0738F4841B950BA60BB70B01978B
:100D0000A109B1098A879B87AC87BD87CE010E9464
:100D1000060501C01E86E701209749F6DF91CF91B5
:100D20001F910F91FF90EF900895FC0182810C9428
:100D3000E703EF92FF920F931F93CF93DF937C0112
:100D40008B01FB01C285D385CB010A960E949D07CA
:100D50000097E9F0F8012585FC01D701121624F46B
:100D600081918D932150FACF8881F8019585891B57
:100D7000888399818585890F89839485891708F0EF
:100D800019828A81882329F01A828CE003C08DE0C1
:100D900001C080E0DF91CF911F910F91FF90EF9004
:100DA0000895DA01109749F0ED91FC911197309771
:100DB00021F0AB01BC01CD01099481E0089581E0EF
:100DC0000895EF92FF920F931F93CF937B01DC0165
:100DD00012960D911C91139701151105F1F0D80190
:100DE0001496ED91FC911597B701C8010995C82F8C
:100DF00081110AC0F80180819181009741F0DC01E6
:100E0000ED91FC91099503C08E3009F4C0E0F80122
:100E100002811381CC2301F301C0C0E080E00E9475
:100E200061078C2FCF911F910F91FF90EF90089544
:100E3000CF92DF92EF92FF920F931F93CF93DF93A6
:100E4000EC016B010A851B85E888F988488559857E
:100E5000C7010E94D106882351F1CE010A960E9453
:100E600067070097F1F02D85022E000C330BF60179
:100E7000A7017C01C601121613066CF4DC016D910A
:100E8000CD01DA016D93AD016191D7016D937D01C3
:100E900021503109F0CFF80190818D85890F808331
:100EA00004C081E0D80112968C9380E001C08EE0EE
:100EB000DF91CF911F910F91FF90EF90DF90CF9036
:100EC000089580917E0181110C944F040895CF9272
:100ED000DF92EF92FF92FC01A081B1818C9190E0B2
:100EE00011962C91AC01420F511D9A016A01550FC8
:100EF000EE08FF084281A42FB0E0BD01681B790B0A
:100F00008381082E000C990B681779077CF0848187
:100F1000958150E060E070E0C416D506E606F7065D
:100F200010F02A1B3B0B820F931F02C080E090E061
:100F3000FF90EF90DF90CF900895DC01ED91FC9150
:100F400011972081222341F0218114968D919C914B
:100F50001597820F911D089580E090E008950E94FA
:100F6000CA0780916C01089580936C010E946E0401
:100F70000E9402050C9469040C94280FCF93C82F8B
:100F80000E941603811102C00E94650F8C2FCF9121
:100F90000C9491008091A0038130D9F08091980346
:100FA00090919903A0919A03B0919B03892B8A2B6E
:100FB0008B2B79F481E040919C0350919D036091CB
:100FC0009E0370919F03452B462B472B19F480E01D
:100FD000089581E008951092A00310929C0310924E
:100FE0009D0310929E0310929F03109298031092FB
:100FF000990310929A0310929B038091940390910D
:101000009503A0919603B09197038093A1039093C9
:10101000A203A093A303B093A40308950E94680FB2
:101020008091A1039091A203A091A303B091A40386
:101030000196A11DB11D8093A1039093A203A093DB
:10104000A303B093A40380919C0390919D03A0916E
:101050009E03B0919F030196A11DB11D80939C0337
:1010600090939D03A0939E03B0939F030895809156
:101070009C0390919D03A0919E03B0919F030097C4
:10108000A105B10569F14091A1035091A2036091BE
:10109000A3037091A4034150510961097109409360
:1010A000A1035093A2036093A3037093A403019739
:1010B000A109B10980939C0390939D03A0939E0383
:1010C000B0939F038091A1039091A203A091A303E9
:1010D000B091A403892B8A2B8B2B11F40C94660FEF
:1010E000089580919C0390919D03A0919E03B091DF
:1010F0009F03892B8A2B8B2B89F4809198039091E5
:101100009903A0919A03B0919B03892B8A2B8B2B77
:1011100029F40E94680F81E08093A00308958091D4
:10112000A003882321F01092A0030C94660F089569
:101130000E946C0F8091A1039091A203A091A30340
:10114000B091A4030196A11DB11D8093A1039093BA
:10115000A203A093A303B093A4038091980390915A
:101160009903A0919A03B0919B030196A11DB11D13
:101170008093980390939903A0939A03B0939B0351
:1011800008958091980390919903A0919A03B0914A
:101190009B030097A105B10569F14091A10350910E
:1011A000A2036091A3037091A40341505109610906
:1011B00071094093A1035093A2036093A30370931A
:1011C000A4030197A109B10980939803909399030F
:1011D000A0939A03B0939B038091A1039091A203E3
:1011E000A091A303B091A403892B8A2B8B2B11F41C
:1011F0000C946A0F08950E94CA07882311F083E1B6
:10120000089580E00895CF93C82F0E94CA078C2FBD
:101210000E94E703C82F80917E0181110E944F0434
:101220008C2FCF910895CF930E94CA07882311F085
:10123000C3E101C0C0E0E0917101F09172018281CF
:10124000815082830E94D70381E080937D010E94B8
:1012500019048C2FCF910895CF93C82F0E94CA07ED
:10126000E0917101F09172018281815082838C2F13
:101270000E94E703C82F811108C00E94D70381E0B4
:1012800080937D010E94190407C0E0917101F091E3
:10129000720182818F5F82838C2FCF910895CF93CB
:1012A0000E94CA07882311F0C3E101C0C0E0809109
:1012B00075010E945F030E944F0480917501909117
:1012C0007601A0917701B091780140917901509118
:1012D0007A0160917B0170917C0184179507A607C4
:1012E000B70711F40E9434038C2FCF910895CF9348
:1012F000DF93EC010E94CA07882311F083E101C04B
:1013000080E0409175015091760160917701709174
:101310007801433051056105710514F4488303C019
:101320009091E0019883DF91CF9108950F931F93DF
:10133000CF93C82F8B010E94CA07882311F083E145
:1013400001C080E0EC2FEE0FFF0BE052FD4F01904B
:10135000F081E02D94819370F8019083CF911F91DB
:101360000F910895880F990BFC01E052FD4FA08169
:10137000B181ED91FC911197309769F01D921C920B
:101380002091E00193818481228314821382E92FCA
:10139000F82F3097B9F70895CF93C82F0E94CA0746
:1013A000882311F083E101C080E0EC2FF0E0EE0F24
:1013B000FF1FE85DFC4FA081B181909175011296ED
:1013C0009C931297E0917101F0917201208131811B
:1013D00014963C932E931397B183A0839381119617
:1013E0009C9311972C9193819695921760F430E01D
:1013F000D901A854BC4F9C9191509C93220F331F4C
:101400009170292B2383CF910895CF93DF93C82F19
:101410000E94CA07882311F0D3E101C0D0E0EC2F6D
:10142000F0E0EE0FFF1FE85DFC4F0190F081E02D32
:10143000A0917101B0917201818113968C931397E1
:10144000838194818D939C93148213828091E00117
:1014500082830E944F048D2FDF91CF910895DC018C
:10146000ED91FC9184819581DC01ED91FC910994D1
:101470001F93CF93DF93182FEB010E94CA07882395
:1014800011F083E101C080E0E12FF0E0EE0FFF1FDB
:10149000E154FD4F0190F081E02D0190F081E02DAD
:1014A0000190F081E02D40815181628173814C83F4
:1014B0005D836E837F834481558166817781488314
:1014C00059836A837B83408551856285738548870C
:1014D00059876A877B87DF91CF911F9108958F92FB
:1014E0009F92AF92BF92CF92DF92EF92FF920F93B3
:1014F0001F93CF93C82F8B010E94CA07882311F036
:1015000083E101C080E0EC2FF0E0EE0FFF1FE1541B
:10151000FD4F0190F081E02D9685913029F54285AF
:101520005385648575850190F081E02D0190F081EF
:10153000E02DC088D188E288F3884C155D056E05E2
:101540007F0540F484809580A680B780480D591DA2
:101550006A1D7B1D4C195D096E097F09F8014083E6
:1015600051836283738301C085E0CF911F910F91F6
:10157000FF90EF90DF90CF90BF90AF909F908F90B3
:1015800008958F929F92AF92BF92CF92DF92EF9287
:10159000FF920F931F93CF93DF93D82F4A015B01E4
:1015A000680179010E94CA07882311F0C3E101C0D4
:1015B000C0E0ED2FF0E0EE0FFF1FE154FD4F019072
:1015C000F081E02D8685811130C0A081B1810D9020
:1015D000BC91A02D50964D915D916D917C9153974A
:1015E000480D591D6A1D7B1D14968D919D910D907E
:1015F000BC91A02D84179507A607B70740F4481B98
:10160000590B6A0B7B0B41505109610971094287E3
:10161000538764877587C682D782E086F18681E02A
:101620008687CF010E94060501C0C7E08C2FDF919D
:10163000CF911F910F91FF90EF90DF90CF90BF90CF
:10164000AF909F908F9008958F929F92AF92BF928C
:10165000CF92DF92EF92FF920F931F93CF93DF937E
:10166000C82F4A015B01680179010E94CA078823DB
:1016700011F0D3E101C0D0E0EC2FF0E0EE0FFF1F3E
:10168000E154FD4F0190F081E02D868581110EC05F
:1016900082869386A486B586C682D782E086F18646
:1016A00081E08687CF010E94060501C0D7E08D2F1B
:1016B000DF91CF911F910F91FF90EF90DF90CF902E
:1016C000BF90AF909F908F9008950F931F93CF93EB
:1016D000DF93C82F0E94CA07882311F0D3E101C00D
:1016E000D0E0EC2FF0E0EE0FFF1FE154FD4F008142
:1016F0001181F8018685813031F4C8010E94950579
:10170000F801168601C0D5E08D2FDF91CF911F9192
:101710000F910895CF93DF93880F991FFC01E9562D
:10172000FD4F0190F081E02D8585882369F0C28509
:10173000D385CF010A960E949D07892B39F08A81B3
:10174000882331F08CE005C08AE003C08DE001C041
:1017500080E0DF91CF910895880F991FFC01E55734
:10176000FD4F80819181DC01ED91FC9109949B01F9
:10177000880F991FFC01E956FD4F60817181DB01E3
:101780001696ED91FC911797C9010994880F991F3E
:10179000FC01E557FD4F80819181DC01ED91FC91C9
:1017A00060E070E0099580E0089526E040E052ECAA
:1017B00061E070E082ED93E00E94351261E088E024
:1017C0000E94010E60E088E00E943D0E61E08DE025
:1017D0000E94010E60E08DE00E943D0E62E08CE010
:1017E0000E94010E64E282ED93E00C943810CF93D6
:1017F000DF931F92CDB7DEB7BE016F5F7F4F809141
:101800002E0390912F030E94F100882329F08D3040
:1018100001F165EF71E019C08091B6039091B703B3
:10182000892B89F489818093B50384E08093B40384
:1018300081E090E09093B7038093B60361E088E085
:101840000E943D0E06C061EE71E082ED93E00E94C1
:101850002B108091B6039091B7038130910549F028
:1018600008F473C08230910561F1039709F448C010
:1018700066C08091B5031816F4F464E670E080E069
:1018800090E00E94830F16161706180619062CF012
:101890008091B4038E5F8093B40361E08DE00E9479
:1018A0003D0E8091B403811118C084E08093B4038D
:1018B00082E090E020C089E08093B40383E090E070
:1018C0001AC060E088E00E943D0E60E08DE00E945A
:1018D0003D0E8091B403882321F081508093B4039E
:1018E00034C084E08093B4038091B5038150809329
:1018F000B50381E090E09093B7038093B60325C0D1
:101900008091B4039FEF980F9093B40381111DC091
:101910001982BE016F5F7F4F80912C0390912D0340
:101920000E94ED00882331F065EF71E082ED93E0D5
:101930000E942B101092B7031092B60306C06BE002
:1019400072E082ED93E00E942B100E94B9000F908C
:10195000DF91CF910895CF93DF931F92CDB7DEB77C
:101960008091B2039091B3038130910571F040F002
:101970008230910509F45BC0039709F46BC07CC009
:101980001092B1031092B00362C02091AE03309167
:10199000AF03F901EE0FFF1FED57FD4F0190F081EE
:1019A000E02D8091B0039091B103E80FF91F808181
:1019B0008983811117C0C90101968430910529F0EE
:1019C0009093AF038093AE0304C01092AF031092C4
:1019D000AE038AE090E09093AD038093AC0383E084
:1019E00090E020C0805309F48AE08983BE016F5FD4
:1019F0007F4F80912A0390912B030E94ED00882352
:101A000031F061E272E082ED93E00E942B10809150
:101A1000B0039091B10301969093B1038093B0030A
:101A200082E090E09093B3038093B2032BC0BE0199
:101A30006F5F7F4F80913003909131030E94F100DE
:101A4000882329F08D30F1F061E272E017C081E067
:101A500090E0E8CF8091AC039091AD039C012150C0
:101A600031093093AD032093AC03892B59F41092C4
:101A7000B3031092B20306C068E372E082ED93E014
:101A80000E942B100E94B9000F90DF91CF91089512
:101A90008CE00E946C0E2091AA033091AB032130A0
:101AA0003105B1F040F02230310569F123303105C4
:101AB00009F464C076C0019709F073C081E0809397
:101AC000A9031092A8031092A70381E090E051C0EF
:101AD000019771F48091A9038F5F8093A9038730E8
:101AE0000CF45FC08093A60381E08093A80359C0E3
:101AF00081E08093A5038091A7038F5F8093A70364
:101B000082E090E036C08130910521F421E02093FD
:101B1000A9032FC08091A5038F5F8093A5038B300D
:101B20000CF43FC06091A7036A3011F0605D01C002
:101B300060E382ED93E00E942D108091A80388233A
:101B4000B1F06FE472E082ED93E00E942B1060919F
:101B5000A603062E000C770B4AE050E082ED93E0DE
:101B60000E94DB1069E282ED93E00E942D1083E079
:101B700090E09093AB038093AA0313C0019709F4FC
:101B80009DCF8091A5038F5F8093A50385314CF095
:101B90006FE282ED93E00E9438101092AB03109236
:101BA000AA030C94B9008FEB91E00C943A010895CC
:101BB000833081F028F4813099F08230A1F00895CB
:101BC0008730A9F08830B9F08430D1F4809180005A
:101BD0008F7D03C0809180008F778093800008956F
:101BE00084B58F7702C084B58F7D84BD08958091C0
:101BF000B0008F7703C08091B0008F7D8093B000DC
:101C00000895CF93DF9390E0FC01E458FF4F2491B7
:101C1000FC01E057FF4F8491882361F190E0880F29
:101C2000991FFC01E854FF4FC591D491FC01E25586
:101C3000FF4FA591B491611109C09FB7F8948881B5
:101C4000209582238883EC912E230BC0623061F4AF
:101C50009FB7F8948881322F309583238883EC9145
:101C60002E2B2C939FBF06C08FB7F894E8812E2BA4
:101C700028838FBFDF91CF9108951F93CF93DF9378
:101C8000282F30E0F901E859FF4F8491F901E45819
:101C9000FF4FD491F901E057FF4FC491CC23C1F01D
:101CA000162F81110E94D80DEC2FF0E0EE0FFF1FD0
:101CB000E255FF4FA591B4919FB7F894111104C05C
:101CC0008C91D095D82302C0EC91DE2BDC939FBF82
:101CD000DF91CF911F910895CF93DF93282F30E0AC
:101CE000F901E859FF4F8491F901E458FF4FD4916D
:101CF000F901E057FF4FC491CC2391F081110E946C
:101D0000D80DEC2FF0E0EE0FFF1FEC55FF4FA59123
:101D1000B491EC91ED2381E090E021F480E002C0E9
:101D200080E090E0DF91CF9108951F920F920FB65F
:101D30000F9211242F933F934F935F936F937F9351
:101D40008F939F93AF93BF93EF93FF938091C903BA
:101D50009091CA03A091CB03B091CC033091C803FA
:101D600023E0230F2D3720F40196A11DB11D05C0DE
:101D700026E8230F0296A11DB11D2093C80380936E
:101D8000C9039093CA03A093CB03B093CC03809173
:101D9000CD039091CE03A091CF03B091D0030196D3
:101DA000A11DB11D8093CD039093CE03A093CF03CB
:101DB000B093D0030E94D30DFF91EF91BF91AF91EB
:101DC0009F918F917F916F915F914F913F912F9153
:101DD0000F900FBE0F901F90189584B5826084BD40
:101DE00084B5816084BD85B5826085BD85B581601F
:101DF00085BDEEE6F0E0808181608083E1E8F0E07F
:101E00001082808182608083808181608083E0E8AD
:101E1000F0E0808181608083E1EBF0E0808184608C
:101E20008083E0EBF0E0808181608083EAE7F0E08E
:101E300080818460808380818260808380818160F2
:101E400080838081806880831092C1000895FFCFD5
:101E5000FFCFCF93DF93880F990BFC01E851FD4F23
:101E6000C081D181AC81BD8111978A819B81A80FEE
:101E7000B91F2D85CD010197FD013297223019F44C
:101E800021EB30E002C02DEC30E02C93DC013C93E0
:101E90009E818F819083DF018E93CF0107971E92E1
:101EA0008A179B07E1F780E8DF0118978C93CF0131
:101EB00044971E928A179B07E1F7A881B98175970D
:101EC000ED93FC93DF91CF91089508957894089550
:101ED000F894089578940895F894089508950E94C8
:101EE000ED0E0E946E0F0E94D70D0E94D50B8091BF
:101EF000D1030E94BE0780E090E0089580913803EE
:101F00008093D1030895CF92DF92EF92FF926115F3
:101F100071058105910549F06B017C010E94E51274
:101F2000A70196010E94611303C060E070E0CB013D
:101F3000FF90EF90DF90CF90089508951F920F9239
:101F40000FB60F9211242F933F934F935F936F938C
:101F50007F938F939F93AF93BF93EF93FF93E09102
:101F6000DC01F091DD010995FF91EF91BF91AF91F7
:101F70009F918F917F916F915F914F913F912F91A1
:101F80000F900FBE0F901F9018951F920F920FB6D3
:101F90000F9211242F933F934F935F936F937F93EF
:101FA0008F939F93AF93BF93EF93FF93E091DE01E5
:101FB000F091DF010995FF91EF91BF91AF919F9152
:101FC0008F917F916F915F914F913F912F910F90E2
:101FD0000FBE0F901F901895CF92DF92EF92FF9255
:101FE0000F931F93CF93DF936C017A018B01C0E0B5
:101FF000D0E0CE15DF0581F0D8016D918D01D601BD
:10200000ED91FC910190F081E02DC6010995892B9D
:1020100011F02196EECF7E01C701DF91CF911F9184
:102020000F91FF90EF90DF90CF90089561157105AB
:1020300079F0FB0101900020E9F73197AF01461BD1
:10204000570BDC01ED91FC910280F381E02D0994A6
:1020500080E090E008950C941610DC01ED91FC9165
:102060000190F081E02D099461E773E00C94161063
:102070000F931F93CF93DF93EC010E942D108C01DF
:10208000CE010E943410800F911FDF91CF911F91DC
:102090000F9108958F929F92AF92BF92EF92FF920D
:1020A0000F931F93CF93DF93CDB7DEB7A1970FB6F2
:1020B000F894DEBF0FBECDBF7C01FA01CB0119A29F
:1020C000223008F42AE08E010F5D1F4F822E912CE2
:1020D000A12CB12CBF01A50194010E943F13F9016D
:1020E000CA01015011096A3014F4605D01C0695CD5
:1020F000D8016C93232B242B252B61F7B801C70142
:102100000E941610A1960FB6F894DEBF0FBECDBF89
:10211000DF91CF911F910F91FF90EF90BF90AF9003
:102120009F908F900895CF92DF92EF92FF920F933E
:102130001F93CF93DF932115310581F4DC01ED91DD
:10214000FC910190F081E02D642FDF91CF911F91E0
:102150000F91FF90EF90DF90CF9009942A303105D6
:1021600001F577FF1DC06A017B01EC016DE20E9461
:102170002D108C0144275527BA014C195D096E09B1
:102180007F092AE0CE010E944A10800F911FDF9143
:10219000CF911F910F91FF90EF90DF90CF90089516
:1021A0002AE0DF91CF911F910F91FF90EF90DF9088
:1021B000CF900C944A109A01AB01770F660B770B06
:1021C0000C9493101F920F920FB60F9211242F931D
:1021D0008F939F93EF93FF93E091E203F091E303DA
:1021E0008081E091E803F091E90382FD12C09081C3
:1021F0008091EB038F5F8F732091EC03821751F076
:10220000E091EB03F0E0EE52FC4F958F8093EB03EF
:1022100001C08081FF91EF919F918F912F910F903D
:102220000FBE0F901F9018951F920F920FB60F922E
:1022300011242F933F934F935F936F937F938F93CB
:102240009F93AF93BF93EF93FF9382ED93E00E9430
:10225000A411FF91EF91BF91AF919F918F917F91C9
:102260006F915F914F913F912F910F900FBE0F9003
:102270001F901895E2EDF3E01382128288EE93E04E
:10228000A0E0B0E084839583A683B78384E893E0DD
:102290009183808385EC90E09587848784EC90E03F
:1022A0009787868780EC90E0918B808B81EC90E023
:1022B000938B828B82EC90E0958B848B86EC90E004
:1022C000978B868B118E128E138E148E0895FC01BF
:1022D000918D228D892F90E0805C9F4F821B910908
:1022E0008F7399270895FC01918D828D981731F095
:1022F000828DE80FF11D858D90E008958FEF9FEF9F
:102300000895FC01918D828D981761F0828DDF0117
:10231000A80FB11D5D968C91928D9F5F9F73928FD8
:1023200090E008958FEF9FEF0895FC01538D448D49
:10233000252F30E0842F90E0821B930B541710F070
:10234000CF96089501970895FC01848DDF01A80FB1
:10235000B11DA35ABF4F2C91848D90E001968F73CD
:102360009927848FA689B7892C93A089B1898C91EC
:10237000837080648C93938D848D981306C002883B
:10238000F389E02D80818F7D80830895EF92FF9205
:102390000F931F93CF93DF93EC0181E0888F9B8D88
:1023A0008C8D981305C0E889F989808185FD26C048
:1023B000F62E0B8D10E00F5F1F4F0F731127E02ECD
:1023C0008C8DE8120CC00FB607FCFACFE889F989AA
:1023D000808185FFF5CFCE010E94A411F1CF8B8DB6
:1023E000FE01E80FF11DE35AFF4FF0829FB7F8940A
:1023F0000B8FEA89FB89808180620AC09FB7F894BD
:10240000EE89FF896083E889F9898081837080641F
:1024100080839FBF81E090E0DF91CF911F910F916A
:10242000FF90EF900895CF93DF93EC01888D882380
:10243000C9F0EA89FB89808185FD05C0A889B98931
:102440008C9186FD0FC00FB607FCF5CF808185FF0C
:10245000F2CFA889B9898C9185FFEDCFCE010E947A
:10246000A411E7CFDF91CF910895CF92DF92EF9241
:10247000FF921F93CF93DF93EC016A017B01122F30
:10248000E889F98982E080834115514E6105710523
:10249000B1F060E079E08DE390E0A70196010E9441
:1024A0003F13DA01C9010197A109B109B695A795B2
:1024B000979587959C01211580E13807A8F0E88958
:1024C000F989108260E874E88EE190E0A701960136
:1024D0000E943F13DA01C9010197A109B109B6951C
:1024E000A795979587959C01EC85FD853083EE85B2
:1024F000FF852083188EEC89FD891083EA89FB898A
:10250000808180618083EA89FB8980818860808303
:10251000EA89FB89808180688083EA89FB898081E0
:102520008F7D8083DF91CF911F91FF90EF90DF909F
:10253000CF9008958F929F92AF92BF92CF92DF92E9
:10254000EF92FF92CF93DF93EC01688179818A81CA
:102550009B81611571058105910521F464E279ED96
:102560008BE597E02DE133EF41E050E00E946113ED
:1025700049015A019B01AC01A7EAB1E40E94801312
:102580006B017C01ACEEB4EFA50194010E948E13A7
:10259000DC01CB018C0D9D1DAE1DBF1DB7FF03C01F
:1025A0000197A109B04888839983AA83BB83BC01A2
:1025B000CD019F77DF91CF91FF90EF90DF90CF908B
:1025C000BF90AF909F908F9008958F929F92AF92FF
:1025D000BF92CF92DF92EF92FF926091680170916B
:1025E000690180916A0190916B0161157105810506
:1025F000910521F464E279ED8BE597E02DE133EF6D
:1026000041E050E00E94611349015A019B01AC0175
:10261000A7EAB1E40E9480136B017C01ACEEB4EF39
:10262000A50194010E948E13DC01CB018C0D9D1D30
:10263000AE1DBF1DB7FF03C00197A109B04880932D
:10264000680190936901A0936A01B0936B01BC018A
:10265000CD019F77FF90EF90DF90CF90BF90AF902C
:102660009F908F90089560936801709369018093A3
:102670006A0190936B010895F8940C94A813A1E259
:102680001A2EAA1BBB1BFD010DC0AA1FBB1FEE1FEC
:10269000FF1FA217B307E407F50720F0A21BB30B37
:1026A000E40BF50B661F771F881F991F1A9469F7B3
:1026B00060957095809590959B01AC01BD01CF010F
:1026C0000895052E97FB1EF400940E94781357FD81
:1026D00007D00E943F1307FC03D04EF40C947813EC
:1026E00050954095309521953F4F4F4F5F4F08953E
:1026F00090958095709561957F4F8F4F9F4F08956E
:102700000E949913A59F900DB49F900DA49F800DDA
:10271000911D11240895B7FF0C9480130E9480131B
:10272000821B930B0895EE0FFF1F0590F491E02D8F
:102730000994A29FB001B39FC001A39F700D811D9A
:102740001124911DB29F700D811D1124911D0895BA
:04275000F894FFCF2B
:102754000000000000000000000000000000000075
:102764000000000000000000000000000000000065
:102774000000000000000000000000000000000055
:102784000000000000000000000000000000000045
:102794000000000000000000000000000000000035
:1027A4000000000000000000000000000000000025
:1027B400000000000000000001000000FF00001AFB
:1027C400030000C303FFFFFFFFFFFFFFFF0000DF65
:1027D40006DF06C502000000001700000017000015
:1027E4000002CE02000000000A0000000A000000FF
:1027F40002D702000000000A0000000A00000002E4
:1028040000000003000000000200000000010001BD
:10281400000000FFFF0000010000000000000000B5
:10282400000000000000000400FF00009D0F9D0F49
:10283400FF74785F64696769743A206F76657272B1
:10284400756E2E0A0074785F64696769743A204370
:102854004F4D206572726F722E0A0074785F64693E
:102864006769743A206261642073746174652E0A26
:102874000074785F6E756D6265723A20434F4D2027
:102884006572726F722E0A0074785F6E756D626580
:10289400723A206261642073746174652E0A002A9E
:1028A4002800303033393031313039303730353138
:1028B4000037373739333131003030333930313143
:1028C40030393035343236003332333633343536FA
:1028D400363700520261026902780293028F02E1E4
:1028E400069B02E106AD02AD029B02000000001847
:1028F4000799067F01BD0301017204710400000001
:1029040000180799068101C00301010406F505A119
:102914000192018301BF012F0ACB02950600BF017A
:102924002F0AD402950601BF012F0ADD0295060283
:10293400BA01B501B001C3030C03FE02F0021A038D
:102944006F045506C000480D000002030100000694
:102954007504C000F70B0000010201007304350583
:10296400C000AB0C00000001010002060506500087
:10297400270F000003000100D7010100000001003F
:10298400000001010100000000C1088F08980871CF
:1029940008EF040E08DC0437084F09050ABC0738A1
:1029A4000A03096F0A2C09C10A7709240BB40765C5
:1029B4000BAF07AC0B8A0BB70BCC09C60B960913EC
:1029C400090D0A006E616E00696E66006F7666001E
:1029D40000000000C611EC0F95111312671181114C
:0229E40073116D
:00000001FF
