:100000000C9463000C94860C0C94AD0C0C948B0037
:100010000C948B000C948B000C948B000C948B0034
:100020000C948B000C948B000C948B000C948B0024
:100030000C948B000C948B000C948B000C948B0014
:100040000C94970B0C948B000C94440D0C94760D2F
:100050000C948B000C948B000C948B000C948B00F4
:100060000C948B000C948B0000000008000201002F
:100070000003040700000000000000000102040863
:100080001020408001020408102001020408102002
:10009000040404040404040402020202020203032E
:1000A00003030303000000002300260029000000D2
:1000B0000000250028002B0000000000240027007D
:1000C0002A00800C9C0D11241FBECFEFD8E0DEBFAC
:1000D000CDBF12E0A0E0B1E0E2E5FEE102C0059094
:1000E0000D92AE34B107D9F723E0AEE4B2E001C01F
:1000F0001D92A63FB207E1F710E0C3E6D0E004C0CE
:100100002197FE010E94210FC136D107C9F70E9435
:10011000710C0C94FC0E0C940000E2E10E94320180
:100120000895E9E00E9432010895EAE00E94320158
:100130000895E1E00E9432010895E3E00E94320157
:100140000895E7E00E9432010895E5E00E9432013F
:100150000895E0E00E9432010895E2E00E94320139
:100160000895E4E00E9432010895ECE00E9432011B
:100170000895E8E00E9432010895EEE00E94320105
:100180000895E4E10E9432010895E0E10E94320105
:100190000895E7E10E9432010895E6E00E943201ED
:1001A0000895EBE00E9432010895EDE00E943201D3
:1001B0000895EFE00E9432010895E1E10E943201CA
:1001C0000895E3E10E9432010895E5E10E943201C1
:1001D0000895E6E10E943201089521968A929A924A
:1001E000AA92BA92CA92DA92EA92FA920A931A936D
:1001F0002197E0916901F0916A010080F181E02D81
:10020000C083D1830895C0916B01D0916C01E881C6
:10021000F981C081D181219619910991F990E990D4
:10022000D990C990B990A9909990899021970895F3
:100230002F903F90E7E6F1E0CDB7DEB7EDBFFEBF10
:100240003F922F9208952F903F90CDBFDEBF3F92F7
:100250002F920895E0E80E9432010895E0E40E94A0
:10026000320108952F923F924F925F926F927F9248
:100270002FB62F92CF93DF937E2EF894E09100015A
:10028000EF5FE0930001E13011F40E941801E0E01B
:10029000E0937901E72DE07849F00E94A505F091FF
:1002A0007A01F17071F00E9440040BC0E72DEC312F
:1002B00040F4EE0FF0E0E450FE4F0190F081E02DAD
:1002C0000995F0917901EF2FE17059F0F27011F07A
:1002D0000E94ED008F938F2F0E9488038F910E94C0
:1002E000030120910001215020930001222311F4E9
:1002F0000E942301DF91CF912F902FBE7F906F90AE
:100300005F904F903F902F900895CF92DF92EF92A1
:10031000FF920F931F93DC01EC91DB012C918E2F48
:100320008170C82ED12CE12CF12C8E2F877090E09B
:10033000A0E0B0E0B695A79597958795DC01A35905
:10034000BD4F8C91C81AD108E108F108E670422F20
:10035000417050E060E070E0822F877090E0A0E094
:10036000B0E0B695A79597958795DC01A359BD4F49
:100370008C91481B510961097109822F8670970180
:10038000860101701127222733270E2B4170552734
:1003900066277727482B81E090E00417150726078A
:1003A000370710F080E090E01F910F91FF90EF90E1
:1003B000DF90CF9008958F929F92AF92BF92EF926D
:1003C000FF920F931F93CF93DF937C014A015B0150
:1003D000B694A794979487944230510561057105AE
:1003E000E0F0440F551F8701040F151FE401CC0FE7
:1003F000DD1FCE0DDF1DB801CE010E948501892BC6
:1004000061F0F801908181812881398131832083D5
:1004100098838983B501A401DBCFDF91CF911F9130
:100420000F91FF90EF90BF90AF909F908F900895A5
:100430004F925F926F927F928F929F92AF92BF92F4
:10044000CF92DF92EF92FF920F931F93CF93DF93A0
:1004500000D000D000D0CDB7DEB78C016A017B019F
:10046000DC018C91282F30E040E050E029833A8372
:100470004B835C8346015701880C991CAA1CBB1C4A
:1004800029813A814B815C81281539054A055B0534
:1004900008F442C0240135013FEF431A530A630AAE
:1004A000730A89819A81AB81BC8184159505A60563
:1004B000B70580F0B201660F771F600F711FC4018E
:1004C000880F991F800F911F0E948501892B11F0C1
:1004D000530142013401660C771C600E711ECC0C76
:1004E000DD1CD801AC0DBD1DBE83AD83B301CD01B4
:1004F0000E948501892B81F0ED81FE8190818181AF
:10050000D3012D913C911197318320839C931196B7
:100510008C9375016401AECF26960FB6F894DEBFBA
:100520000FBECDBFDF91CF911F910F91FF90EF9044
:10053000DF90CF90BF90AF909F908F907F906F9003
:100540005F904F900895EEE1F3E040814F5F40836C
:1005500050E060E070E0E82FEE0FFF0BEA52FE4F34
:100560000190F081E02D238530E0F901E359FD4F42
:10057000908191509083FA01EE0FFF1FE25EFC4FD5
:10058000220F331F9170292B208381838EE193E00A
:100590000C94DB01EEE1F3E040814F5F408350E0DB
:1005A00060E070E0E82FEE0FFF0BEE52FE4F01907F
:1005B000F081E02D9381FA01EE0FFF1FE25EFC4F08
:1005C000908381838EE193E00C94DB01CF93DF93E2
:1005D000EEE1F3E080819FEF980F9083D281C38199
:1005E00090E0880F991FDC01A25EBC4F8D919C9119
:1005F0009383828341E050E060E070E0CF010E948D
:1006000018028D2F9C2FDF91CF91089580914E027B
:10061000811115C08091710190917201A0917301B7
:10062000B09174018F3F2FEF9207A207B20749F0F4
:10063000181619061A061B0634F081E0089584E0A6
:10064000089580E0089582E00895880F990BFC01D9
:10065000EA52FE4F0190F081E02D0084F185E02DFB
:100660003097E9F0228121111AC021E02283DC01B8
:10067000AE52BE4F0D90BC91A02D13968C91139746
:100680008183808190E0FC01E359FD4F208121505E
:100690002083880F991F2170822B13968C930895C5
:1006A000880F990BFC01EA52FE4F0190F081E02D7A
:1006B0000084F185E02D309761F02281213049F4EA
:1006C00012822181FC01EE52FE4F0190F081E02D5B
:1006D000238308958091750190917601A09177010F
:1006E000B091780140917101509172016091730154
:1006F00070917401481759076A077B0741F0E09130
:100700006F01F091700121E024830C94CA020895D6
:10071000CF93DF93882391F0C0916901D0916A0152
:10072000E0916D01F0916E018481833049F081E0A8
:100730008483809171010E94CA0202C0C0E0D0E0AF
:10074000E0916F01F0917001F0936E01E0936D0103
:1007500080916B0190916C0190936A018093690183
:100760008091750130917601209177019091780107
:1007700080937101309372012093730190937401FF
:1007800092E094830E942503CE01DF91CF910895DA
:10079000809171010E945003E0916D01F0916E0112
:1007A0008281882319F085E0848308951482089556
:1007B000CF93DF93282F220F330BF901EE52FE4F18
:1007C000C081D1819A81F901EA52FE4F0190F081F6
:1007D000E02D2485921770F4911105C095E09C835B
:1007E00091E090937A010E94A3028A818F5F8A83AD
:1007F00080E001C084E0DF91CF910895E82FEE0FF3
:10080000FF0BEE52FE4F0190F081E02D118210821D
:100810000C942B0C1F93CF93DF930E94E602182FAA
:10082000892F492F092E000C550B660B770B40932F
:100830007501509376016093770170937801292FA9
:10084000220F330BF901EE52FE4FC081D181D093BC
:100850007001C0936F01F901EA52FE4F208131818E
:1008600030936C0120936B019C81953019F40E94A8
:10087000FE031B8310927A01DF91CF911F9108959F
:10088000E0917501F0917601EE0FFF1FEE52FE4FE1
:100890000190F081E02D909120038381891730F43D
:1008A0000E946A030E940A0483E001C080E08093F2
:1008B0007901089581E0809379010C940A04CF9323
:1008C000DF93C1E0D0E001C0CC0F8A95EAF7209118
:1008D000D8013091D9018091D4019091D501109225
:1008E0001E0310926A011092690130936C012093EB
:1008F0006B0110926E0110926D01909370018093C4
:100900006F018FEF9FEFDC01809371019093720173
:10091000A0937301B0937401809375019093760155
:10092000A0937701B09378011092790110927A0127
:1009300081E00E94D8038091F9018C2319F080E0B6
:100940000E94D8038091F801C82359F08091C70113
:100950009091C80121E0FC012687DF91CF910C9492
:10096000DE04DF91CF9108950E948C0681110E94D0
:10097000AD06E0916D01F0916E0180819181892B2E
:1009800021F0809171010E9474080C94D5070E9497
:100990008C0681110E94AD06E0916D01F0916E010F
:1009A00080819181892B21F0809171010E947408CE
:1009B0000C94BD0781E080934F020895AF92BF92DF
:1009C000CF92DF92EF92FF920F931F93CF93DF931B
:1009D000FC01A081B181AD90BC90E501AC89BD89DD
:1009E000109739F0428553856485758530E020E0A5
:1009F00017C0D50155969C938E93549757969C9308
:100A00008E93569715821482138212825BC01296BF
:100A10008D919C9113973A2F2B2F009779F0DC0141
:100A20001A96CD90DD90ED90FC901D974C155D05CC
:100A30006E057F0560F7CD01A32FB22F93838283CC
:100A4000B583A483009719F0EC01FD83EC83109724
:100A500029F01396FC93EE93129705C0D501559695
:100A6000FC93EE935497E501AE89BF891A968D9158
:100A70009D910D90BC91A02D088919892A893B89E7
:100A800080179107A207B30780F4041715072607FC
:100A9000370728F0481759076A077B0798F4D501EC
:100AA0005796FC93EE9356970DC00417150726072B
:100AB000370740F4481759076A077B0718F4E50120
:100AC000FF8BEE8BDF91CF911F910F91FF90EF90F5
:100AD000DF90CF90BF90AF900895CF93DF93DC016C
:100AE000ED91FC9111970190F081E02D8489958919
:100AF0001296CD91DC911397A817B90711F4D58BF5
:100B0000C48B86899789A817B90711F4D78BC68B30
:100B1000209731F014968D919C9115979D838C832D
:100B200014960D90BC91A02D109721F01396DC9394
:100B3000CE93129786899789892B21F48489958988
:100B4000978B868BDF91CF910895EF92FF920F9351
:100B50001F93CF93DF93FC0180914F02882309F408
:100B6000B5C084859585A685B7850196A11DB11D63
:100B700084879587A687B787408151816281738179
:100B800084179507A607B70709F0A0C040895189C7
:100B9000628973894F5F5F4F6F4F7F4F848195816B
:100BA000A681B78184179507A607B70718F440E018
:100BB00050E0BA01408B518B628B738B1486158683
:100BC00016861786C689D789209709F47FC08A853B
:100BD0009B85AC85BD85481759076A077B0709F0D7
:100BE00075C0CE01DC011296ED90FC901397E114D4
:100BF000F10471F0D7011A960D911D912D913C9140
:100C00001D97401751076207730711F4C701EACF18
:100C10002C813D812115310529F0D9011396FC92D3
:100C2000EE921297E114F10429F0D70115963C9346
:100C30002E93149724893589C217D30711F4F58AA6
:100C4000E48AE114F10419F0F78AE68A04C02489E1
:100C50003589378B268B8F01FC0113821282EA8043
:100C6000FB80E881F9810280F381E02DCE010995B6
:100C70004E815F8168857985411551056105710552
:100C800009F18A859B85AC85BD85840F951FA61FBC
:100C9000B71FF8014481558166817781481759074C
:100CA0006A077B0738F4841B950BA60BB70B0197DB
:100CB000A109B1098A879B87AC87BD87CE010E94B5
:100CC000DE0401C01E86E701209749F6DF91CF912F
:100CD0001F910F91FF90EF900895FC0182810C9479
:100CE000D8030E948C068091680108958093680162
:100CF0000E945F040E94DA040C945A040C942A0C9B
:100D0000CF93C82F0E940603811102C00E94670C76
:100D10008C2FCF910C94910080915C028130D9F09E
:100D20008091540290915502A0915602B0915702C1
:100D3000892B8A2B8B2B79F481E0409158025091BA
:100D4000590260915A0270915B02452B462B472B4A
:100D500019F480E0089581E0089510925C021092E9
:100D600058021092590210925A0210925B0210928D
:100D7000540210925502109256021092570280911E
:100D8000500290915102A0915202B091530280936F
:100D90005D0290935E02A0935F02B093600208959B
:100DA0000E946A0C80915D0290915E02A0915F02A8
:100DB000B09160020196A11DB11D80935D029093D8
:100DC0005E02A0935F02B0936002809158029091FE
:100DD0005902A0915A02B0915B020196A11DB11D6A
:100DE0008093580290935902A0935A02B0935B02E9
:100DF00008958091580290915902A0915A02B091A1
:100E00005B020097A105B10569F140915D02509127
:100E10005E0260915F027091600241505109610968
:100E2000710940935D0250935E0260935F0270937C
:100E300060020197A109B109809358029093590269
:100E4000A0935A02B0935B0280915D0290915E0282
:100E5000A0915F02B0916002892B8A2B8B2B11F439
:100E60000C94680C08958091580290915902A091B9
:100E70005A02B0915B02892B8A2B8B2B89F48091CB
:100E8000540290915502A0915602B0915702892BBD
:100E90008A2B8B2B29F40E946A0C81E080935C02E0
:100EA000089580915C02882321F010925C020C94DA
:100EB000680C08950E946E0C80915D0290915E0214
:100EC000A0915F02B09160020196A11DB11D8093B7
:100ED0005D0290935E02A0935F02B09360028091E6
:100EE000540290915502A0915602B091570201967A
:100EF000A11DB11D8093540290935502A0935602F8
:100F0000B093570208958091540290915502A09198
:100F10005602B09157020097A105B10569F14091C1
:100F20005D0250915E0260915F02709160024150DB
:100F300051096109710940935D0250935E0260930B
:100F40005F02709360020197A109B1098093540276
:100F500090935502A0935602B093570280915D0280
:100F600090915E02A0915F02B0916002892B8A2B62
:100F70008B2B11F40C946C0C08950E948C06882322
:100F800011F083E1089580E00895CF93C82F0E9467
:100F90008C068C2F0E94D803C82F80917A01811172
:100FA0000E9440048C2FCF910895CF930E948C060D
:100FB000882311F0C3E101C0C0E0E0916D01F09120
:100FC0006E018281815082830E94C80381E08093F8
:100FD00079010E940A048C2FCF910895CF93C82FD6
:100FE0000E948C06E0916D01F0916E01828181502A
:100FF00082838C2F0E94D803C82F811108C00E94C1
:10100000C80381E0809379010E940A0407C0E0913F
:101010006D01F0916E0182818F5F82838C2FCF9161
:101020000895CF930E948C06882311F0C3E101C07C
:10103000C0E0809171010E9450030E9440048091A1
:10104000710190917201A0917301B091740140916E
:101050007501509176016091770170917801841744
:101060009507A607B70711F40E9425038C2FCF918F
:101070000895CF93DF93EC010E948C06882311F032
:1010800083E101C080E04091710150917201609153
:10109000730170917401141615061606170614F0E4
:1010A000488303C09091B0019883DF91CF91089558
:1010B0000F931F93CF93C82F8B010E948C06882318
:1010C00011F083E101C080E0EC2FEE0FFF0BEE5238
:1010D000FE4F0190F081E02D94819370F801908390
:1010E000CF911F910F910895880F990BFC01EE523B
:1010F000FE4FA081B181ED91FC911197309769F07D
:101100001D921C922091B0019381848122831482CC
:101110001382E92FF82F3097B9F70895CF93C82F8E
:101120000E948C06882311F083E101C080E0EC2F3F
:10113000F0E0EE0FFF1FEA50FE4FA081B1819091C9
:10114000710112969C931297E0916D01F0916E01DE
:101150002081318114963C932E931397B183A08301
:10116000938111969C9311972C9193819695921748
:1011700060F430E0D901A359BD4F9C9191509C93EC
:10118000220F331F9170292B2383CF910895CF9382
:10119000DF93C82F0E948C06882311F0D3E101C091
:1011A000D0E0EC2FF0E0EE0FFF1FEA50FE4F019071
:1011B000F081E02DA0916D01B0916E0181811396B7
:1011C0008C931397838194818D939C9314821382C3
:1011D0008091B00182830E9440048D2FDF91CF91D6
:1011E0000895DC01ED91FC9184819581DC01ED9104
:1011F000FC9109941F93CF93DF93182FEB010E946A
:101200008C06882311F083E101C080E0E12FF0E03B
:10121000EE0FFF1FE953FE4F0190F081E02D01908A
:10122000F081E02D0190F081E02D408151816281BB
:1012300073814C835D836E837F8344815581668196
:101240007781488359836A837B8340855185628592
:101250007385488759876A877B87DF91CF911F9174
:1012600008958F929F92AF92BF92CF92DF92EF92AA
:10127000FF920F931F93CF93C82F8B010E948C0670
:10128000882311F083E101C080E0EC2FF0E0EE0F45
:10129000FF1FE953FE4F0190F081E02D96859130BC
:1012A00029F542855385648575850190F081E02D8F
:1012B0000190F081E02DC088D188E288F3884C1538
:1012C0005D056E057F0540F484809580A680B7801B
:1012D000480D591D6A1D7B1D4C195D096E097F095A
:1012E000F801408351836283738301C085E0CF910D
:1012F0001F910F91FF90EF90DF90CF90BF90AF9034
:101300009F908F9008958F929F92AF92BF92CF92AD
:10131000DF92EF92FF920F931F93CF93DF93D82F1B
:101320004A015B01680179010E948C06882311F053
:10133000C3E101C0C0E0ED2FF0E0EE0FFF1FE95365
:10134000FE4F0190F081E02D8685811130C0A08193
:10135000B1810D90BC91A02D50964D915D916D91F4
:101360007C915397480D591D6A1D7B1D14968D91D4
:101370009D910D90BC91A02D84179507A607B707E6
:1013800040F4481B590B6A0B7B0B41505109610912
:1013900071094287538764877587C682D782E08642
:1013A000F18681E08687CF010E94DE0401C0C7E09C
:1013B0008C2FDF91CF911F910F91FF90EF90DF90D5
:1013C000CF90BF90AF909F908F9008958F929F92F3
:1013D000AF92BF92CF92DF92EF92FF920F931F9343
:1013E000CF93DF93C82F4A015B01680179010E9406
:1013F0008C06882311F0D3E101C0D0E0EC2FF0E09F
:10140000EE0FFF1FE953FE4F0190F081E02D86851E
:1014100081110EC082869386A486B586C682D78245
:10142000E086F18681E08687CF010E94DE0401C05C
:10143000D7E08D2FDF91CF911F910F91FF90EF900B
:10144000DF90CF90BF90AF909F908F9008950F93B3
:101450001F93CF93DF93C82F0E948C06882311F02F
:10146000D3E101C0D0E0EC2FF0E0EE0FFF1FE95315
:10147000FE4F00811181F8018685813031F4C80169
:101480000E946D05F801168601C0D5E08D2FDF9111
:10149000CF911F910F910895609163027091640242
:1014A0006A30710511F0605D01C060E38FE792E082
:1014B0000E94150D8091630290916402181619061E
:1014C00064F48091610290916202892B31F061EBAA
:1014D00071E08FE792E00C94130D089526E040E050
:1014E00052EC61E070E08FE792E00E94970E60E0BE
:1014F00082E00E94320B63EB71E08FE792E00E9482
:10150000200D8091FB010C94800682E00E946E0BFE
:1015100090936A0280936902019751F48091670267
:1015200090916802019690936802809367025EC072
:1015300080916502909166029C012F5F3F4F30932E
:1015400066022093650240916B0250916C0241301B
:101550005105D9F420916702309168022850310971
:101560002530310520F050936202409361022091B2
:101570006302309164022F5F3F4F309364022093E7
:101580006302109268021092670220916302309108
:101590006402121613068CF44397449770F40E9469
:1015A0004C0A10926402109263021092620210922E
:1015B000610210926602109265028091650290911C
:1015C00066028897BCF06FE28FE792E00E94320DCE
:1015D0006AEB71E08FE792E00E94130D10926402B3
:1015E00010926302109262021092610210926602DF
:1015F000109265028091690290916A0290936C0248
:1016000080936B020C94B9008FE891E00C942A014E
:101610000895833081F028F4813099F08230A1F070
:1016200008958730A9F08830B9F08430D1F48091E2
:1016300080008F7D03C0809180008F778093800031
:10164000089584B58F7702C084B58F7D84BD0895D9
:101650008091B0008F7703C08091B0008F7D809320
:10166000B0000895CF93DF9390E0FC01E458FF4F62
:101670002491FC01E057FF4F8491882361F190E0B1
:10168000880F991FFC01E854FF4FC591D491FC01CC
:10169000E255FF4FA591B491611109C09FB7F8942D
:1016A0008881209582238883EC912E230BC06230A1
:1016B00061F49FB7F8948881322F30958323888313
:1016C000EC912E2B2C939FBF06C08FB7F894E88126
:1016D0002E2B28838FBFDF91CF910895CF93DF9377
:1016E000282F30E0F901E859FF4F8491F901E458BF
:1016F000FF4FD491F901E057FF4FC491CC2391F0F3
:1017000081110E94090BEC2FF0E0EE0FFF1FEC554A
:10171000FF4FA591B491EC91ED2381E090E021F48D
:1017200080E002C080E090E0DF91CF9108951F92A9
:101730000F920FB60F9211242F933F934F935F9305
:101740006F937F938F939F93AF93BF93EF93FF9389
:101750008091760290917702A0917802B0917902FF
:101760003091750223E0230F2D3720F40196A11D3F
:10177000B11D05C026E8230F0296A11DB11D2093BF
:1017800075028093760290937702A0937802B093CB
:10179000790280917A0290917B02A0917C02B091B3
:1017A0007D020196A11DB11D80937A0290937B0268
:1017B000A0937C02B0937D020E94040BFF91EF91F5
:1017C000BF91AF919F918F917F916F915F914F9159
:1017D0003F912F910F900FBE0F901F90189584B5D9
:1017E000826084BD84B5816084BD85B5826085BD1D
:1017F00085B5816085BDEEE6F0E080818160808303
:10180000E1E8F0E0108280818260808380818160E5
:101810008083E0E8F0E0808181608083E1EBF0E0AC
:10182000808184608083E0EBF0E080818160808350
:10183000EAE7F0E080818460808380818260808339
:101840008081816080838081806880831092C10064
:101850000895FFCFFFCFCF93DF93880F990BFC0143
:10186000EA52FE4FC081D181AC81BD8111978A813E
:101870009B81A80FB91F2D85CD010197FD013297DE
:10188000223019F421EB30E002C02DEC30E02C9333
:10189000DC013C939E818F819083DF018E93CF0189
:1018A00007971E928A179B07E1F780E8DF011897D8
:1018B0008C93CF0144971E928A179B07E1F7A8816A
:1018C000B9817597ED93FC93DF91CF9108950895B9
:1018D00078940895F894089578940895F894089564
:1018E00008950E94EF0B0E94700C0E94080B0E944A
:1018F0006E0A80917E020E94800680E090E008954A
:101900008091FA0180937E02089508951F920F92AC
:101910000FB60F9211242F933F934F935F936F93C2
:101920007F938F939F93AF93BF93EF93FF93E09138
:10193000AC01F091AD010995FF91EF91BF91AF918D
:101940009F918F917F916F915F914F913F912F91D7
:101950000F900FBE0F901F9018951F920F920FB609
:101960000F9211242F933F934F935F936F937F9325
:101970008F939F93AF93BF93EF93FF93E091AE014B
:10198000F091AF010995FF91EF91BF91AF919F91B8
:101990008F917F916F915F914F913F912F910F9018
:1019A0000FBE0F901F901895CF92DF92EF92FF928B
:1019B0000F931F93CF93DF936C017A018B01C0E0EB
:1019C000D0E0CE15DF0581F0D8016D918D01D601F3
:1019D000ED91FC910190F081E02DC6010995892BD4
:1019E00011F02196EECF7E01C701DF91CF911F91BB
:1019F0000F91FF90EF90DF90CF90089561157105E2
:101A000079F0FB0101900020E9F73197AF01461B07
:101A1000570BDC01ED91FC910280F381E02D0994DC
:101A200080E090E008950C94FE0CDC01ED91FC91B7
:101A30000190F081E02D09946CE272E00C94FE0CB0
:101A40000F931F93CF93DF93EC010E94FE0C8C0148
:101A5000CE010E941C0D800F911FDF91CF911F912D
:101A60000F9108950F931F93CF93DF93EC010E9482
:101A7000150D8C01CE010E941C0D800F911FDF916E
:101A8000CF911F910F9108951F920F920FB60F9251
:101A900011242F938F939F93EF93FF93E0918F02E5
:101AA000F09190028081E0919502F091960282FD82
:101AB00012C09081809198028F5F8F73209199025C
:101AC000821751F0E0919802F0E0E158FD4F958FB8
:101AD0008093980201C08081FF91EF919F918F9137
:101AE0002F910F900FBE0F901F9018951F920F927D
:101AF0000FB60F9211242F933F934F935F936F93E1
:101B00007F938F939F93AF93BF93EF93FF938FE751
:101B100092E00E94060EFF91EF91BF91AF919F91CD
:101B20008F917F916F915F914F913F912F910F9086
:101B30000FBE0F901F901895EFE7F2E0138212820C
:101B400088EE93E0A0E0B0E084839583A683B7831A
:101B50008FE392E09183808385EC90E09587848782
:101B600084EC90E09787868780EC90E0918B808B67
:101B700081EC90E0938B828B82EC90E0958B848B50
:101B800086EC90E0978B868B118E128E138E148EBE
:101B90000895FC01918D228D892F90E0805C9F4FEC
:101BA000821B91098F7399270895FC01918D828D75
:101BB000981731F0828DE80FF11D858D90E0089522
:101BC0008FEF9FEF0895FC01918D828D981761F042
:101BD000828DDF01A80FB11D5D968C91928D9F5F64
:101BE0009F73928F90E008958FEF9FEF0895FC010F
:101BF000538D448D252F30E0842F90E0821B930B72
:101C0000541710F0CF96089501970895FC01848D24
:101C1000DF01A80FB11DA35ABF4F2C91848D90E016
:101C200001968F739927848FA689B7892C93A089F1
:101C3000B1898C91837080648C93938D848D98137B
:101C400006C00288F389E02D80818F7D808308950E
:101C5000EF92FF920F931F93CF93DF93EC0181E0FC
:101C6000888F9B8D8C8D981305C0E889F9898081B8
:101C700085FD26C0F62E0B8D10E00F5F1F4F0F73F2
:101C80001127E02E8C8DE8120CC00FB607FCFACF9E
:101C9000E889F989808185FFF5CFCE010E94060E83
:101CA000F1CF8B8DFE01E80FF11DE35AFF4FF0825B
:101CB0009FB7F8940B8FEA89FB89808180620AC004
:101CC0009FB7F894EE89FF896083E889F98980815C
:101CD0008370806480839FBF81E090E0DF91CF912B
:101CE0001F910F91FF90EF900895CF93DF93EC0138
:101CF000888D8823C9F0EA89FB89808185FD05C02C
:101D0000A889B9898C9186FD0FC00FB607FCF5CF65
:101D1000808185FFF2CFA889B9898C9185FFEDCFAD
:101D2000CE010E94060EE7CFDF91CF910895CF92AA
:101D3000DF92EF92FF921F93CF93DF93EC016A0142
:101D40007B01122FE889F98982E080834115514E89
:101D500061057105B1F060E079E08DE390E0A701E5
:101D600096010E94FF0EDA01C9010197A109B1098C
:101D7000B695A795979587959C01211580E1380721
:101D8000A8F0E889F989108260E874E88EE190E0B3
:101D9000A70196010E94FF0EDA01C9010197A1096E
:101DA000B109B695A795979587959C01EC85FD851A
:101DB0003083EE85FF852083188EEC89FD891083A2
:101DC000EA89FB89808180618083EA89FB8980813F
:101DD00088608083EA89FB89808180688083EA89C2
:101DE000FB8980818F7D8083DF91CF911F91FF9050
:101DF000EF90DF90CF900895F8940C94270FA1E214
:101E00001A2EAA1BBB1BFD010DC0AA1FBB1FEE1F74
:101E1000FF1FA217B307E407F50720F0A21BB30BBF
:101E2000E40BF50B661F771F881F991F1A9469F73B
:101E300060957095809590959B01AC01BD01CF0197
:101E40000895EE0FFF1F0590F491E02D0994F8948A
:021E5000FFCFC2
:101E52000000000000000000000000000000000080
:101E62000000000000000000000000000000000070
:101E72000000000000000000000000000000000060
:101E82000000000000000000000000000000000050
:101E92000000000000000000000000000000000040
:101EA2000000000000000000000000000000000030
:101EB2000000000000000000FF0000E801000070C8
:101EC20002FFFFFFFFFFFFFFFF0000C9010000004C
:101ED20000050000000500000002000000010401EE
:101EE200000000FFFF0000010000000000000000F1
:101EF200000000000000000200FF0000850C850CBD
:101F0200FF2A00537461727421006E657874206E2A
:101F1200756D6265723A007B018F01F108CF016D28
:101F220006008A017002DA01E8011C032403800022
:101F3200850A000000010100A403A6035000290C39
:101F4200000001000100A701010100008307510701
:101F52005A073307C704D006B404F906D507760634
:101F62007E068E08C507C708EE07FA083908310948
:101F7200710683091108E609270A58080D0A006E3E
:101F8200616E00696E66006F7666000000000028D0
:0E1F92000ED40CF70D750EC90DE30DD50D0024
:00000001FF
